S00F00006669726D776172652E73313988
S11380003B860FB7103D860CB7F03F8603B7F024CC
S11380108600B7F0208608B7F0228630B7F02B86AA
S113802000B7F02C860CB7F02D18CE81EA18A60004
S11380308100270EF6F02EC58027F9B7F02F180817
S113804020EB0118CE82E718A6008100270EF6F077
S11380502EC58027F9B7F02F180820EB0120634FB5
S11380605FCE0000358F30E700088C8000220220AC
S1138070F3CE0000A60008A1FF2608188C7EF9277D
S11380804125F118CE82F618A6008100270EF6F0DD
S11380902EC58027F9B7F02F180820EB017E81E860
S11380A03518308F84F044444444810A2D06800AF4
S11380B08B4180308B30F6F02EC58027F9B7F02F36
S11380C020B2CE000086FFA700A10026138600A7D9
S11380D000A100260B088C77FF26037E818420E50F
S11380E018CE831E18A6008100270EF6F02EC58038
S11380F027F9B7F02F180820EB01358F84F044449A
S11381004444810A2D06800A8B4180308B30F6F07E
S11381102EC58027F9B7F02F8F308F484848488400
S1138120F044444444810A2D06800A8B4180308BFC
S113813030F6F02EC58027F9B7F02F8F308F1784D3
S1138140F044444444810A2D06800A8B4180308BDC
S113815030F6F02EC58027F9B7F02F8F308F1748EF
S113816048484884F044444444810A2D06800A8BDC
S11381704180308B30F6F02EC58027F9B7F02F8F71
S1138180307E80D518CE833C18A6008100270EF6D9
S1138190F02EC58027F9B7F02F180820EB0186AC24
S11381A0B7F02D18CE834818A6008100270EF6F0EC
S11381B02EC58027F9B7F02F180820EB014F5FCEAA
S11381C0000018CE00008E7BFF0EBD8C070F18CE6A
S11381D0834B18A6008100270EF6F02EC58027F9E0
S11381E0B7F02F180820EB0120FE1B5B324A1B5B03
S11381F0303B30481B5B3F371B5B3F331B5B303BE3
S11382003232722020202020205F0D0A20202020DE
S1138210202F205C0D0A202020202F205F205C20AE
S1138220202020416D697242494F530D0A202020BD
S11382302F205F5F5F205C202020286329203230BC
S11382403036202020202020202020202020566589
S11382507273696F6E20312E302D7263310D0A20D6
S1138260202F5F2F2020205C5F5C0D0A0D0A202048
S113827042494F53204275696C64204461746520FF
S1138280323030362D30362D31362031383A3437CD
S11382903A3235205554430D0A0D0A20204F6E2DD5
S11382A06368697020524F4D202620454550524F37
S11382B04D2064697361626C65642E0D0A2020533D
S11382C0434920696E697469616C697A65642E0D2D
S11382D00A20204465746563746564203330204B40
S11382E0422052414D2E0020566572696679696EAE
S11382F0672E2E2E20000D0A20202020506C656150
S1138300736520636865636B20616464726573736D
S1138310206C696E6520776972696E6721000D0AA9
S113832020202020426164206D656D6F7279206C7D
S11383306F636174696F6E3A203078000D0A2020F3
S11383402E2E2E444F4E45210D0A000D0A42494F50
S1138350533A2053797374656D2068616C74656455
S11383602E0D0A00DE003CDE023CDE043CCC8CB266
S1138370BD85AB38DF0438DF0238DF003BDE003C6C
S1138380DE023CDE043CCC8CC6BD85AB38DF043851
S1138390DF0238DF003BDE003CDE023CDE043CF65C
S11383A0F00E5AF7F01EF6F023C408F7F0237F0905
S11383B0087C0907F60907C102262A7F09077C09F8
S11383C006F60906C13B231D7F09067C0905F6094B
S11383D005C13B23107F09057C0904F60904C11774
S11383E023037F090438DF0438DF0238DF003BDE73
S11383F0003CDE023CDE043CF6F025C47FF7F025A9
S1138400F60907C1F4232C7F09077C0906F609063F
S1138410C13B23237F09067C0905F60905C13B23DB
S1138420167F09057C0904F60904C11723097F098D
S11384300420045CF7090738DF0438DF0238DF0062
S11384403BDE003CDE023CDE043C3C3CDE083CF609
S1138450F02E30E7058400C420ED02272E188F4F3C
S1138460F60881188FCCFFFFFB09028900DD001894
S11384709C002756188F8F8FC308018FF6F02FE7C3
S1138480007C08812A447F0881203FF6F02E2A3A96
S1138490F609098FF60800D7098FD1092717CE08E6
S11384A0823A7C0909E600F7F02FF609092A06301A
S11384B0E603F70909D609F10909260E7F08007FAA
S11384C00909F6F02DC47FF7F02D38DF0838383865
S11384D0DF0438DF0238DF003BF60902F1088127A8
S11384E0150FCE08013A7C0902E6007D09022A0331
S11384F07F09020E20077F08817F09025F4F39340C
S1138500DE083CDE0A3C30E7040FF60909D70B8F7E
S1138510F60800D7098FD109260DF6F02E2A083067
S1138520E604F7F02F202ED609D70118DE00188FA5
S11385304F188FCEFFFFD60B3ADF00189C0027158B
S1138540188FC30882188F30E60418E7007C0800EF
S11385502A037F08000EF6F02DCA80F7F02D38DFCD
S11385600A38DF083139188FCE000018DF00DC002C
S1138570DF00D300DD023CDE02E6003827030820DA
S1138580EA8F393C30ED00188F18E600271530EEDD
S113859000E600081830CDEF00BD84FF30EE006D1A
S11385A00026EB3839CC8CDB8DD939DE083CDE0A69
S11385B03CDD0A7F00097F0008DC0AD3088FE6004F
S11385C02611C60DBD84FFC60ABD84FF38DF0A38F4
S11385D0DF0839BD84FFDE0808DF0820DC8F18308F
S11385E018EE02E600271118E100260C081808E628
S11385F000270518E10027F44FE60018E000820088
S1138600393CDE083C30ED02EE0826108F20504F36
S1138610D60930EE0609E00082002043183018EE37
S11386200618E6001808DF04301AEF061AEE0237BF
S113863018E600D70118DE0033188FD709188FDF2A
S113864002DE04D10926C8DE021AEE0218081AEF67
S113865002DE04D6092706098C000026BF4F5F38C6
S1138660DF083839C1202704C1092604CC000139A8
S11386704F5F39CBD0C1092204CC0001394F5F3997
S11386803430E700CBD0C1092308E600CBBFC105D5
S11386902205CC000120024F5F31393C3CDE083C0E
S11386A0DE0A3CDE0C3CDE0E3C30ED087F000F7F22
S11386B0000EDE0EDF0ADF0C2002DF0A30EC08D3E6
S11386C00AED0A8FE6008D9CDE0A085D26ECDF0ABF
S11386D030EE0AE600C12D261CCC0001DD0E20156B
S11386E0DC0C0505D30C05DB098900C3FFD0DD0CC8
S11386F0DE0A08DF0A30EC08D30A8FE6008F8FD732
S1138700098F27078FBD86735D26D5DC0E27064F9C
S11387105F930CDD0CDC0C38DF0E38DF0C38DF0A1D
S113872038DF083838393C3CDE083CDE0A3CDE0CD5
S11387303CDE0E3C30ED087F000F7F000EDE0EDFC6
S11387400ADF0C2002DF0A30EC08D30AED0A8FE6B8
S113875000BD8664DE0A085D26EBDF0A30EE0AE619
S113876000C12D261BCC0001DD0E2014DC0C0505F8
S11387700505DB098900C3FFD0DD0CDE0A08DF0A2A
S113878030EC08D30A8FE6008F8FD7098F27078F25
S1138790BD86805D26D6DC0E27064F5F930CDD0C6C
S11387A0DC0C38DF0E38DF0C38DF0A38DF083838E5
S11387B0393C3C3C3CDE083CDE0A3CDE0C3CDD0043
S11387C018DE003018DF041AEE106F0618DF0218E6
S11387D0DE04DD002A1AC62D18DE0218E700C601E1
S11387E0E70618DE04188F4353C30001188F2017BF
S11387F0DD002613C630DF04DE02E700188FE70130
S1138800188FDE047E889930188FE707188F273A6F
S1138810183018E607186F0C18E70D18EC0CCE008A
S11388200A028FCDEF0C18ED0918E60D18E70B18A6
S1138830E60A18E707DE0218E6063A18E60BCB301C
S1138840E700186C0618E60A26C6DE02183018E699
S1138850063A6F005A18E7067F000954D70BD60969
S11388604FDD0C188FDE02DF00188FD300188F182D
S1138870E60030E7084FE606930CDE02DD008FD3F6
S1138880008FE60018E700183018E608E7007C00BF
S1138890098FD609D10B8F23C538DF0C38DF0A388E
S11388A0DF083838383839DE063C308FC3FFF38FA1
S11388B0359F06DE083CDE06ED046F076F06CE8C9E
S11388C0DE3CBD85DD3131DD002711CE8CE33CDE9D
S11388D006EC04BD85DD3131DD00263BCC8CE5BDE5
S11388E085ABDE06EE06DF08DE0808DF088CFFFF36
S11388F026F67F00097F0008CC8D72BD85ABDE08AB
S113890008DF088CFFFF26F6CC8DC7BD85ABDE06DD
S11389106F076F067E8A5DCE8E103CDE06EC04BDCA
S113892085DD3131DD00261DCC8E17BD85ABDE061D
S1138930EE06DF08DE0808DF088CFFFF26F60F7E50
S113894080017E8A5DCE8E453CDE06EC04BD85DD6D
S11389503131DD0026090FCC8E4ABD85AB20FECE19
S11389608E5F3CDE06EC04BD85DD3131DD00271170
S1138970CE8E633CDE06EC04BD85DD3131DD0026A0
S113898019C61BBD84FFCC8E69BD8583C61BBD84FF
S1138990FFCC8E6DBD85837E8A5DCE8E733CDE06F4
S11389A0EC04BD85DD3131DD0026050FC630201411
S11389B0CE8E7D3CDE06EC04BD85DD3131DD002646
S11389C00A0FC633F7F02B0E7E8A5DCE8E873CDE0F
S11389D006EC04BD85DD3131DD00267AF60904DEBE
S11389E0066F08E709F609056F0AE70BF609066F33
S11389F00CE70DCC8E8EBD8583DE06EE082B1D277D
S1138A001BDE06083CDE06EC08BD87B1DC06C300AD
S1138A1001BD8583CC8EA0BD85833131DE06EC0A91
S1138A202B172715083CBD87B1DC06C30001BD85A3
S1138A3083CC8EA9BD85833131DE06083CDE06EC8D
S1138A400CBD87B1DC06C30001BD8583CC8EB4BDEB
S1138A50858331312007CCFFFFDE06ED06DE06EC10
S1138A600638DF08308FC3000D8F3538DF06393CF8
S1138A703C3C3CDE083C30ED027F00097F0008DC12
S1138A8008ED051AEE021AEF08BD84D930E7042672
S1138A90037E8B32C10D2704C10A2611C60DBD8485
S1138AA0FFC60ABD84FF183018EE08203BE604C157
S1138AB0032604EE022008E604C104260DEE086F26
S1138AC000CC8EBFBD85837E8B5E1830E604C10961
S1138AD0261BEE0508CDEF058C00012F55CC8EC268
S1138AE0BD85AB183018EE02186F002071E604C182
S1138AF0082621C67FBD84FFC61BBD84FFCC8EF82B
S1138B00BD8583DE082B2B272909DF081830CDEE1D
S1138B100809201BE604BD84FF183018E60418EE8B
S1138B200818E700DE0808DF081830CDEE0808CD85
S1138B30EF08F60906183018E707F1090326037E43
S1138B408A89F709034FF609048F4F18E6078F3C0B
S1138B508F4FF609058F3C8D0D38387E8A8938DFB2
S1138B60083838383839DE063C3C3C9F06DE06E7D8
S1138B7004C61BBD84FFCC8EFCBD8583C61BBD848F
S1138B80FFCC8EFEBD8583DE06E604C1092205C640
S1138B9030BD84FFDE064FE604083CBD87B1DC0629
S1138BA0C30001BD8583CC8F05BD85833131DE06CD
S1138BB0E60AC1092205C630BD84FFDE064FE60A77
S1138BC0083CBD87B1DC06C30001BD8583CC8F059D
S1138BD0BD85833131DE06E60CC1092205C630BDF0
S1138BE084FFDE064FE60C083CBD87B1DC06C300FB
S1138BF001BD85833131C61BBD84FFCC8F07BD8584
S1138C0083383838DF0639308FC3FEF48F35DE08F9
S1138C103C7F08817F09027F08007F09097F0904DE
S1138C207F09057F09067F09077F09087F0903F685
S1138C30F00ECB40F7F01EC608F7F023CC8F09BD29
S1138C4085ABCC8F1FBD85AB7F00097F0008DE0894
S1138C5008DF088CFFFF26F67F00097F0008CC8F11
S1138C603FBD85ABCC8F7CBD85ABDE0808DF088CAF
S1138C70FFFF26F6CC8EBFBD8583BD85A58F308FC3
S1138C80C30002BD8A6F306D0227EF308FC300022C
S1138C90BD88A71A83FFFF26E1CC8FB3BD85AB2027
S1138CA0D93C30ED00C61BBD84FF30EC00BD85838C
S1058CB038394D
S1138CB2494E49543A204952512061737365727482
S1138CC265642100494E49543A2058495251206161
S1138CD273736572746564210023200068656C7087
S1138CE2003F004372757A2F4F532048656C700D14
S1138CF20A2D2D2D2D2D2D2D2D2D2D2D2D0D0A68C9
S1138D02656C70202020202020202020202020207C
S1138D122074686973206D6573736167650D0A62F7
S1138D226175642031323030202020202020202020
S1138D3220736574206261756420726174652074A5
S1138D426F20313230300D0A626175642039363059
S1138D52302020202020202020207365742062618E
S1138D627564207261746520746F20393630300066
S1138D72636C656172202020202020202020202086
S1138D822020636C65617220746865207363726568
S1138D92656E0D0A757074696D652020202020208F
S1138DA22020202020207072696E7420746865204F
S1138DB2757074696D65206F6620746865207379B7
S1138DC27374656D007265626F6F742020202020B9
S1138DD2202020202020207265626F6F7420746826
S1138DE2652073797374656D0D0A68616C74202053
S1138DF220202020202020202020202068616C7444
S1138E02207468652073797374656D0D0A00726548
S1138E12626F6F7400494E49543A20506C65617315
S1138E2265207374616E646279206173207468656D
S1138E322073797374656D207265626F6F74732E1B
S1138E422E2E0068616C7400494E49543A205379BD
S1138E527374656D2068616C7465642E00636C7351
S1138E6200636C656172005B324A005B303B3048E0
S1138E7200626175642039363030006261756420A5
S1138E823132303000757074696D650053797374D2
S1138E92656D20757074696D6520697320002068A2
S1138EA26F7572732C2000206D696E757465732C56
S1138EB22000207365636F6E64730D0A000D0A004F
S1138EC20D0A73683A2074616220636F6D706C6579
S1138ED274696F6E206973206E6F742061766169A4
S1138EE26C61626C6520696E2074686973207665B2
S1138EF27273696F6E005B31440037005B32343B3E
S1138F023148003A003800494E49543A20426F6FC2
S1138F1274696E67204372757A2F4F5300437275DA
S1138F227A2F4F5320302E312D43555252454E54F1
S1138F3220225265642044776172662200286329E4
S1138F42203230303620416D6972204D616C696B7C
S1138F522C20526567656E7473206F662074686591
S1138F6220556E6976657273697479206F66204341
S1138F72616C69666F726E696100506F7274696FB9
S1138F826E732028632920323030302C2032303066
S1138F9233204672656520536F667477617265206B
S1138FA2466F756E646174696F6E2C20496E632E10
S1138FB20073683A20756E6B6E6F776E20636F6D07
S1088FC26D616E640006
S113FFC0800080008000800080008000800080002D
S113FFD080008000800084418000800080008000D8
S113FFE08396800080008000800080008000800074
S113FFF080008364837D8000800080008000800115
S90380017B
